:020000040000FA
:06000000003083001A2805
:080008003D2882073F34063455
:100010005B344F3466346D347D3407347F346F3451
:1000200077347C3439345E3479347134003440347C
:10003000083401348316003085000030860001301A
:100040008100831220308B008A01850186010C30EB
:1000500091008C018D018E018F019401013090007F
:10006000193096009500F730990020309B00512000
:100070008B1777205E209A2039289300030E920078
:10008000093081001414980F4B289414990F4B28B1
:100090001415F7309900120E8300930E130E0B11F6
:1000A00009001B0884009A011A08B82080009A0AE7
:1000B000840A1A08183A031D54280034141D003409
:1000C00014111B08840000088F00840A00088E00A9
:1000D000840A00088D00840A00088C0004309B0705
:1000E0001B08383A031D003420309B000034941C58
:1000F000003494108B13970105128316103085007D
:100100008312970A051E812883160030850083120A
:100110008B171708053C031C90282D3096000034DF
:1001200017080F3C031C97281930960000340A303A
:1001300096000034141CAF281410160895001108FE
:10014000840000080520860010098500910A03102C
:10015000900D101EAF28013090000C309100950BCF
:100160000800160895000F30850000308600080052
:100170008900831608148312080808008800831673
:10018000081555308900AA30890088148818C628B7
:06019000081183120800B3
:0401960000340034FD
:02400E00F93F78
:10420000010002000300040000000900080007008C
:1042100006000500040003000200010000000A007F
:104220000B000C000D000E000F000E000D000C0026
:10423000000000000000000000000000000000007E
:10424000000000000000000000000000000000006E
:10425000000000000000000000000000000000005E
:10426000000000000000000000000000000000004E
:10427000000000000000000000000000000000003E
:00000001FF
