:020000040000FA
:1000000000308300182882073F3406345B344F34B5
:1000100066346D347D3407347F346F3477347C3408
:1000200039345E3479347134003440340834013466
:100030008316103085000030860004308100831262
:1000400000308B008A01850186010C3091008C0103
:100050008D018E018F010130900030203D202E282F
:10006000003052208F00013052208E00023052208A
:100070008D00033052208C000034110884000008E9
:100080000320860010098500910A0310900D101EB0
:100090004D28013090000C3091000F308500003069
:1000A00086000034890083160814831208080800AB
:1000B00088008316081555308900AA3089008814F5
:0A00C0008818602808118312080058
:0400CA0000340034CA
:02400E00F93F78
:10420000010002000300040000000900080007008C
:1042100006000500040003000200010000000A007F
:104220000B000C000D000E000F000000000000004D
:10423000000000000000000000000000000000007E
:10424000000000000000000000000000000000006E
:10425000000000000000000000000000000000005E
:10426000000000000000000000000000000000004E
:10427000000000000000000000000000000000003E
:00000001FF
